:10000000F3EF03F00000000000EF00F0000000003C
:0A0010000000000000000000F3D71C
:0A001C00210E0D6E0D2EFED712000E
:100026000F0E0C6E470E0D6E0D2EFED70C2EFCD746
:06003600000000001200B2
:06003C00000000001200AC
:10004200086A096A100E0C6E01340836093604502B
:10005200085E0550D8A0053C095ED8B007D0045010
:1000620008260550D8B0053C0926D890003601363E
:060072000C2EEAD712007B
:100078004BBE02D0819A01D0818A4BBC02D08198B4
:1000880001D081884BBA02D0819601D081864BB8C5
:1000980002D0819401D081842CB002D0818001D01B
:1000A80081908182C7DF81924BB602D0819A01D0BC
:1000B800818A4BB402D0819801D081884BB202D09A
:1000C800819601D081864BB002D0819401D0818481
:1000D8002CB002D0818001D081908182ABDF8192E7
:0C00E8002CA002D09CDF01D095DF12009C
:0C00F4000E0E0D6E0D2EFED70000120047
:10010000486A050E485C0AE248504624E16E000E3B
:100110004720E26E200EE66E482AF3D74850462468
:10012000E16E000E4720E26EE66A4806485046241B
:10013000496E000E47204A6E0A0E046E000E056ED0
:1001400044C000F045C001F07CDF08C000F009C0E9
:1001500001F0300E002649C0E1FF4AC0E2FF00C0B6
:10016000E6FF0A0E046E000E056E44C000F045C0A6
:1001700001F067DF00C044F001C045F0000E011837
:1001800002E1000E001801E102D04806CFD71200AC
:100190000450085E0550D8A0053C095E0650D8A062
:1001A000063C0A5E0750D8A0073C0B5E0336070EDC
:1001B0000C6E0334083609360A360B36045003A099
:1001C0000ED0085E0550D8A0053C095E0650D8A0A8
:1001D000063C0A5E0750D8A0073C0B5E0DD00826EF
:1001E0000550D8B0053C09260650D8B0063C0A2672
:1001F0000750D8B0073C0B2603360C2EDAD7023452
:10020000083609360A360B36045003A00ED0085EB5
:100210000550D8A0053C095E0650D8A0063C0A5EF1
:100220000750D8A0073C0B5E0DD008260550D8B06B
:10023000053C09260650D8B0063C0A260750D8B01F
:10024000073C0B260236070E0C6E023408360936C0
:100250000A360B36045002A00ED0085E0550D8A016
:10026000053C095E0650D8A0063C0A5E0750D8A09F
:10027000073C0B5E0DD008260550D8B0053C09267A
:100280000650D8B0063C0A260750D8B0073C0B26CB
:1002900002360C2EDAD70134083609360A360B3608
:1002A000045002A00ED0085E0550D8A0053C095E9F
:1002B0000650D8A0063C0A5E0750D8A0073C0B5E4B
:1002C0000DD008260550D8B0053C09260650D8B0F8
:1002D000063C0A260750D8B0073C0B260136070E0D
:1002E0000C6E0134083609360A360B36045001A06C
:1002F0000ED0085E0550D8A0053C095E0650D8A077
:10030000063C0A5E0750D8A0073C0B5E0DD00826BD
:100310000550D8B0053C09260650D8B0063C0A2640
:100320000750D8B0073C0B2601360C2EDAD7003424
:10033000083609360A360B36045001A00ED0085E86
:100340000550D8A0053C095E0650D8A0063C0A5EC0
:100350000750D8A0073C0B5E0DD008260550D8B03A
:10036000053C09260650D8B0063C0A260750D8B0EE
:10037000073C0B260036070E0C6E00340836093693
:100380000A360B36045000A00ED0085E0550D8A0E7
:10039000053C095E0650D8A0063C0A5E0750D8A06E
:1003A000073C0B5E0DD008260550D8B0053C092649
:1003B0000650D8B0063C0A260750D8B0073C0B269A
:1003C00000360C2EDAD700B00ED0045008260550A7
:1003D000D8B0053C09260650D8B0063C0A2607507E
:0803E000D8B0073C0B26120007
:1003E8000B1E0A1E091E081E082AD8B4092AD8B4EA
:0803F8000A2AD8B40B2A1200F6
:0C0400002C9044C04BF038DE2C80120021
:10040C000FD0800E3A6E19D0C00E3A6E16D0940EE4
:10041C003A6E13D0D40E3A6E10D0800E3A6E0DD0C8
:10042C003A50010AEEE03A50020AEEE03A50030A62
:10043C00EEE03A50040AEEE0F0D73B04006E3A507E
:10044C00002600C03AF000C04BF010DE2C903E6A43
:10045C003E503C24E96E000E3D20EA6EEE520BE05D
:10046C003E503C24E96E000E3D20EA6EEECF44F087
:0A047C00C1DF3E2AEDD72C801200EC
:1004860093929390939493969398939A8192819052
:10049600819A819881968194C3DDC2DDC1DD818612
:1004A60081848182C8DD8192BBDD8182C4DD819237
:1004B600B7DD8182C0DD8192B3DD81948182BBDDAF
:1004C6008192AEDD8182B7DD81928196818A8182B9
:1004D600B2DD8192A5DD819A81848182ACDD819233
:1004E60081948182A8DD81929BDD8182A4DD819247
:1004F60081848182A0DD819293DD819481829BDD5E
:100506008192818A818881868184818294DD81922B
:0605160087DD2C801200BD
:10051C000900F5CFE6FF0006FBE10106F9E1120048
:10052C00C26A070EC012C08E3AC000F000360090AE
:10053C00003600900050C212C280D6DDC282C2A228
:10054C0001D0FDD7C4CF01F0006AC3500012000ED9
:06055C000112C290120022
:10056200220E0C6E086A096A0A6A0B6A0C06D8B473
:100572001FD0D8900B320A320932083203320232CB
:1005820001320032D8A0F2D70C06D8B409D00450F8
:1005920008260550092206500A2207500B22EAD7E4
:1005A200045008260550092206500A2207500B2241
:0205B200120035
:1005B4000450000A12E10550000A0FE10650000A37
:1005C4000CE10750000A09E1FF0E006EFF0E016EF8
:1005D400FF0E026E7F0E036E97D00C6A07BE0C2AC4
:1005E4000D6A0B6A0A6A096A086A0350021001104C
:1005F4000010D8B484D0035007180E6E0EBE0D1E22
:1006040007AE0BD0041E051E061E071E042AD8B40E
:10061400052AD8B4062AD8B4072A03AE0BD0001E84
:10062400011E021E031E002AD8B4012AD8B4022ACD
:10063400D8B4032A035007100E6E0EBE1CD0A6DDDC
:100644000CBE36D00DAE5BD0001E011E021E031E72
:10065400002AD8B4012AD8B4022AD8B4032A081E1E
:10066400091E0A1E0B1E082AD8B4092AD8B40A2A5D
:10067400D8B40B2A44D007AE15D003BE0DD0035016
:100684000B6E02500A6E0150096E0050086E036A28
:10069400026A016A006AD6D7036A026A016A006ABA
:1006A400002A000C031E021E011E001E0C8EC7D75A
:1006B400082AD8B4092AD8B40A2AD8B40B2A045070
:1006C400085CD8A4BFD70550095CD8A4BBD7065092
:1006D4000A5CD8A4B7D707500B5CD8A4B3D70B6A6D
:1006E4000A6A096A086A002AD8B4012AD8B4022A14
:1006F400D8B4032A03AEA6D70E6A0E88FF0C0E6A7E
:0A0704000CA001D06FDE000F120000
:10070E00406A416A3AC042F03BC043F0800E3B184B
:10071E00006E800E005C02E1000E3A5C0BE2010EF0
:10072E00406E000E416E3A500008426E3BC043F0E0
:10073E00000E435642C044F043C045F03CC046F064
:10074E003DC047F0D6DC060E3E6E000E3F6E000E2C
:10075E00006E3F50005C02E13E50000819E23E5030
:10076E003C24E16E3F503D20E26E010E3E5C006E79
:10077E00000E3F58016E00503C24E96E01503D20A2
:10078E00EA6EEECFE6FF010E3E5E000E3F5ADFD759
:10079E003CC0E1FF3DC0E2FF200EE66E405041102E
:1007AE001AE03E6A3F6A3E503C24E96E3F503D20BF
:1007BE00EA6EEE50200A03E13E4A3F2AF4D7010EBC
:1007CE003E5E000E3F5A3E503C24E16E3F503D20AF
:0807DE00E26E2D0EE66E120022
:1007E60016EC05F06E0ED36E070EB46E020EC26ED8
:1007F6000C0EC16EFF0E926E936A816A41DE060E82
:100806000B6E130E0C6EAD0E0D6E0D2EFED70C2E4E
:10081600FCD70B2EFAD700000000010E4B6E29DC28
:100826000C0E4B6E26DC010E3A6E010E3B6E1F0E51
:100836003C6E000E3D6EE7DD020E3A6E010E3B6E1B
:10084600150E3C6E000E3D6EDEDD020E3A6E6BDE60
:100856000150020802E10050BC0802E2818E02D07B
:100866007F0E81163A6A5FDE00C02DF001C02EF0C1
:10087600000E026E036E7C0E046E150E056E000EE3
:10088600066E076E6BDE00C036F001C037F002C0A0
:1008960038F003C039F0FF0E046E030E056E000E2D
:1008A600066E076E84DE00C036F001C037F002C067
:1008B60038F003C039F0660E005E020E015A000ED3
:1008C600025A035A00C036F001C037F002C038F0B1
:1008D60003C039F00A0E046E000E056E066E076E32
:1008E60066DE00C036F001C037F002C038F003C043
:1008F60039F000C028F001C029F0000E01BEFF0E3D
:100906002A6E2B6E28C03AF029C03BF02F0E3C6EA3
:10091600000E3D6EF9DE010E3A6E090E3B6E2F0E8D
:100926003C6E000E3D6E6FDD010E3A6EFCDD00C0C2
:100936002DF001C02EF0000E026E036E7C0E046ECA
:10094600150E056E000E066E076E08DE00C036F048
:1009560001C037F002C038F003C039F0FF0E046E54
:10096600030E056E000E066E076E21DE00C036F021
:1009760001C037F002C038F003C039F0420E005E05
:10098600030E015A000E025A035A00C036F001C087
:1009960037F002C038F003C039F00A0E046E000EBC
:1009A600056E066E076E03DE00C036F001C037F036
:1009B60002C038F003C039F000C028F001C029F0A9
:1009C600000E01BEFF0E2A6E2B6E28C03AF029C01B
:1009D6003BF02F0E3C6E000E3D6E96DE020E3A6E1A
:1009E600090E3B6E2F0E3C6E000E3D6E0CDD030EA7
:1009F6000B6E8A0E0C6E550E0D6E0D2EFED70C2E3E
:0E0A0600FCD70B2EFAD7000000001FD7FFD739
:100A2C0010EE15F0170E006E010E016E140EF66E20
:0E0A3C000A0EF76E000EF86E8EEC02F012003D
:0A0A14004F7574736964653A2000A1
:090A1E00496E736964653A200019
:040A270000000000CB
:020000040030CA
:0D000100081F1EFF0381FF0FC00FE00F401E
:00000001FF
